{
  "abi": [
    {
      "inputs": [
        {
          "internalType": "string",
          "name": "varName",
          "type": "string"
        }
      ],
      "name": "getVar",
      "outputs": [
        {
          "internalType": "address",
          "name": "",
          "type": "address"
        }
      ],
      "stateMutability": "view",
      "type": "function"
    },
    {
      "inputs": [
        {
          "internalType": "string",
          "name": "varName",
          "type": "string"
        },
        {
          "internalType": "address",
          "name": "setTo",
          "type": "address"
        }
      ],
      "name": "setVar",
      "outputs": [],
      "stateMutability": "nonpayable",
      "type": "function"
    }
  ],
  "bytecode": {
    "object": "0x6080604081905263eef8856160e01b90526020608452600160a452606160f81b60c45273__$31abad9b4679d5bca7c161392cb6249fc9$__63eef8856160e4602060405180830381865af415801561005b573d6000803e3d6000fd5b505050506040513d601f19601f8201168201806040525081019061007f91906100b1565b54600080546001600160a01b0319166001600160a01b039092169190911790553480156100ab57600080fd5b506100ca565b6000602082840312156100c357600080fd5b5051919050565b610483806100d96000396000f3fe608060405234801561001057600080fd5b50600436106100365760003560e01c80631e4433c41461003b578063e6eda0331461006a575b600080fd5b61004e610049366004610322565b61007f565b6040516001600160a01b03909116815260200160405180910390f35b61007d610078366004610377565b610178565b005b60008073__$31abad9b4679d5bca7c161392cb6249fc9$__63eef88561846040518263ffffffff1660e01b81526004016100b991906103c9565b602060405180830381865af41580156100d6573d6000803e3d6000fd5b505050506040513d601f19601f820116820180604052508101906100fa9190610417565b604051634d8242e760e11b81526004810182905290915073__$31abad9b4679d5bca7c161392cb6249fc9$__90639b0485ce90602401602060405180830381865af415801561014d573d6000803e3d6000fd5b505050506040513d601f19601f820116820180604052508101906101719190610430565b9392505050565b60405163eef8856160e01b815260009073__$31abad9b4679d5bca7c161392cb6249fc9$__9063eef88561906101b29086906004016103c9565b602060405180830381865af41580156101cf573d6000803e3d6000fd5b505050506040513d601f19601f820116820180604052508101906101f39190610417565b6040516322cc082360e01b8152600481018290526001600160a01b038416602482015290915073__$31abad9b4679d5bca7c161392cb6249fc9$__906322cc082390604401602060405180830381865af4158015610255573d6000803e3d6000fd5b505050506040513d601f19601f820116820180604052508101906102799190610417565b50505050565b634e487b7160e01b600052604160045260246000fd5b600082601f8301126102a657600080fd5b813567ffffffffffffffff808211156102c1576102c161027f565b604051601f8301601f19908116603f011681019082821181831017156102e9576102e961027f565b8160405283815286602085880101111561030257600080fd5b836020870160208301376000602085830101528094505050505092915050565b60006020828403121561033457600080fd5b813567ffffffffffffffff81111561034b57600080fd5b61035784828501610295565b949350505050565b6001600160a01b038116811461037457600080fd5b50565b6000806040838503121561038a57600080fd5b823567ffffffffffffffff8111156103a157600080fd5b6103ad85828601610295565b92505060208301356103be8161035f565b809150509250929050565b600060208083528351808285015260005b818110156103f6578581018301518582016040015282016103da565b506000604082860101526040601f19601f8301168501019250505092915050565b60006020828403121561042957600080fd5b5051919050565b60006020828403121561044257600080fd5b81516101718161035f56fea264697066735822122086360994cc603b4460000d0169595fbad962df2e7787db2e0b53282b1b6afbc764736f6c63430008110033",
    "linkReferences": {
      "src/StorageReference.sol": {
        "StorageStorage": [
          {
            "start": 36,
            "length": 20
          },
          {
            "start": 349,
            "length": 20
          },
          {
            "start": 492,
            "length": 20
          },
          {
            "start": 611,
            "length": 20
          },
          {
            "start": 756,
            "length": 20
          }
        ]
      }
    }
  },
  "methodIdentifiers": {
    "getVar(string)": "1e4433c4",
    "setVar(string,address)": "e6eda033"
  },
  "id": 10
}