{
  "abi": [
    {
      "inputs": [
        {
          "internalType": "bytes32",
          "name": "pointer",
          "type": "bytes32"
        }
      ],
      "name": "getVarVal",
      "outputs": [
        {
          "internalType": "address",
          "name": "",
          "type": "address"
        }
      ],
      "stateMutability": "view",
      "type": "function"
    },
    {
      "inputs": [
        {
          "internalType": "string",
          "name": "varName",
          "type": "string"
        },
        {
          "internalType": "address",
          "name": "addr",
          "type": "address"
        }
      ],
      "name": "setVar",
      "outputs": [
        {
          "internalType": "bytes32",
          "name": "",
          "type": "bytes32"
        }
      ],
      "stateMutability": "nonpayable",
      "type": "function"
    }
  ],
  "bytecode": {
    "object": "0x608060405234801561001057600080fd5b50610274806100206000396000f3fe608060405234801561001057600080fd5b50600436106100365760003560e01c8063557d1d401461003b578063e6eda0331461006b575b600080fd5b61004e6100493660046100e3565b61008c565b6040516001600160a01b0390911681526020015b60405180910390f35b61007e61007936600461012e565b61009c565b604051908152602001610062565b6000610096825490565b92915050565b6000806100a8846100b3565b928355509092915050565b6000816040516020016100c691906101f0565b604051602081830303815290604052805190602001209050919050565b6000602082840312156100f557600080fd5b5035919050565b634e487b7160e01b600052604160045260246000fd5b80356001600160a01b038116811461012957600080fd5b919050565b6000806040838503121561014157600080fd5b823567ffffffffffffffff8082111561015957600080fd5b818501915085601f83011261016d57600080fd5b81358181111561017f5761017f6100fc565b604051601f8201601f19908116603f011681019083821181831017156101a7576101a76100fc565b816040528281528860208487010111156101c057600080fd5b8260208601602083013760006020848301015280965050505050506101e760208401610112565b90509250929050565b600060208083528351808285015260005b8181101561021d57858101830151858201604001528201610201565b506000604082860101526040601f19601f830116850101925050509291505056fea2646970667358221220ac6bf2202061e31fa9e71aa1f8b785f16398691ecd597d610fbd0bbd02f6ea0a64736f6c63430008110033",
    "linkReferences": {}
  },
  "methodIdentifiers": {
    "getVarVal(bytes32)": "557d1d40",
    "setVar(string,address)": "e6eda033"
  },
  "id": 10
}