{
  "abi": [
    {
      "inputs": [],
      "name": "EmptyList",
      "type": "error"
    },
    {
      "inputs": [],
      "name": "OutOfRange",
      "type": "error"
    },
    {
      "inputs": [],
      "name": "back",
      "outputs": [
        {
          "internalType": "uint256",
          "name": "",
          "type": "uint256"
        }
      ],
      "stateMutability": "view",
      "type": "function"
    },
    {
      "inputs": [],
      "name": "dequeue",
      "outputs": [],
      "stateMutability": "nonpayable",
      "type": "function"
    },
    {
      "inputs": [],
      "name": "empty",
      "outputs": [
        {
          "internalType": "bool",
          "name": "",
          "type": "bool"
        }
      ],
      "stateMutability": "view",
      "type": "function"
    },
    {
      "inputs": [
        {
          "internalType": "uint256",
          "name": "value",
          "type": "uint256"
        }
      ],
      "name": "enqueue",
      "outputs": [],
      "stateMutability": "nonpayable",
      "type": "function"
    },
    {
      "inputs": [
        {
          "internalType": "uint256",
          "name": "index",
          "type": "uint256"
        }
      ],
      "name": "erase",
      "outputs": [],
      "stateMutability": "nonpayable",
      "type": "function"
    },
    {
      "inputs": [],
      "name": "front",
      "outputs": [
        {
          "internalType": "uint256",
          "name": "",
          "type": "uint256"
        }
      ],
      "stateMutability": "view",
      "type": "function"
    },
    {
      "inputs": [
        {
          "internalType": "uint256",
          "name": "index",
          "type": "uint256"
        },
        {
          "internalType": "uint256",
          "name": "val",
          "type": "uint256"
        }
      ],
      "name": "insert",
      "outputs": [
        {
          "internalType": "bytes32",
          "name": "newLoc",
          "type": "bytes32"
        }
      ],
      "stateMutability": "nonpayable",
      "type": "function"
    },
    {
      "inputs": [],
      "name": "pop_back",
      "outputs": [],
      "stateMutability": "nonpayable",
      "type": "function"
    },
    {
      "inputs": [],
      "name": "pop_front",
      "outputs": [],
      "stateMutability": "nonpayable",
      "type": "function"
    },
    {
      "inputs": [
        {
          "internalType": "uint256",
          "name": "val",
          "type": "uint256"
        }
      ],
      "name": "push_back",
      "outputs": [
        {
          "internalType": "bytes32",
          "name": "newTail",
          "type": "bytes32"
        }
      ],
      "stateMutability": "nonpayable",
      "type": "function"
    },
    {
      "inputs": [
        {
          "internalType": "uint256",
          "name": "val",
          "type": "uint256"
        }
      ],
      "name": "push_front",
      "outputs": [],
      "stateMutability": "nonpayable",
      "type": "function"
    },
    {
      "inputs": [],
      "name": "size",
      "outputs": [
        {
          "internalType": "uint256",
          "name": "",
          "type": "uint256"
        }
      ],
      "stateMutability": "view",
      "type": "function"
    },
    {
      "inputs": [
        {
          "internalType": "uint256",
          "name": "index",
          "type": "uint256"
        }
      ],
      "name": "value_at",
      "outputs": [
        {
          "internalType": "uint256",
          "name": "",
          "type": "uint256"
        }
      ],
      "stateMutability": "view",
      "type": "function"
    },
    {
      "inputs": [
        {
          "internalType": "uint256",
          "name": "n",
          "type": "uint256"
        }
      ],
      "name": "value_n_from_end",
      "outputs": [
        {
          "internalType": "uint256",
          "name": "",
          "type": "uint256"
        }
      ],
      "stateMutability": "view",
      "type": "function"
    }
  ],
  "bytecode": {
    "object": "0x608060405234801561001057600080fd5b50610774806100206000396000f3fe608060405234801561001057600080fd5b50600436106100ea5760003560e01c8063949d225d1161008c578063ba75bbd811610066578063ba75bbd81461018b578063cf120ec014610193578063edfc61fb146101a6578063f2a75fe4146101b957600080fd5b8063949d225d14610168578063957908d114610170578063a02383881461017857600080fd5b806323b3331e116100c857806323b3331e1461013d5780633100c3d6146101455780637abbc49a146101585780638dde08401461016057600080fd5b80631007f753146100ef5780631d834a1b146101045780631ffc735d1461012a575b600080fd5b6101026100fd3660046106ae565b6101cb565b005b6101176101123660046106c7565b61027e565b6040519081526020015b60405180910390f35b6101026101383660046106ae565b6102fb565b610102610308565b6101026101533660046106ae565b61036a565b6101026103f6565b610117610475565b600254610117565b6101026104ab565b6101176101863660046106ae565b6104b5565b6101176104ed565b6101176101a13660046106ae565b61051b565b6101176101b43660046106ae565b610537565b60025460405190158152602001610121565b60025481106101ed57604051637db3aba760e01b815260040160405180910390fd5b80600003610200576101fd610308565b50565b60025461020f906001906106ff565b810361021d576101fd6103f6565b600061023261022d6001846106ff565b61057c565b90506000610241826002015490565b905061025681805460ff191681556002015490565b826002018190555060016000600201600082825461027491906106ff565b9091555050505050565b6002546000908311156102a457604051637db3aba760e01b815260040160405180910390fd5b826000036102ba576102b58261036a565b6102f5565b60006102ca61022d6001866106ff565b90506102d681846105cc565b91506001600060020160008282546102ee9190610712565b9091555050505b92915050565b6103048161051b565b5050565b60025460000361032b576040516301857f4f60e61b815260040160405180910390fd5b60008054805460ff1916815560028082015480845581549293909260019291906103569084906106ff565b909155508190506103045760006001555050565b6002546000901561037a57506000545b60408051600054602082015260015491810191909152600254606082015260800160408051601f198184030181529190528051602090910120600090815560025490036103c8576000546001555b6000546103d6908383610639565b506001600060020160008282546103ed9190610712565b90915550505050565b600254600003610419576040516301857f4f60e61b815260040160405180910390fd5b6000610430600260006002015461022d91906106ff565b905061044f610440826002015490565b805460ff191681556002015490565b506000600280830182905580546001929061046b9084906106ff565b9091555050600155565b600254600090810361049a576040516301857f4f60e61b815260040160405180910390fd5b6001546000905b6001015491505090565b6104b3610308565b565b60025460009082106104da57604051637db3aba760e01b815260040160405180910390fd5b6104e38261057c565b6001015492915050565b6002546000908103610512576040516301857f4f60e61b815260040160405180910390fd5b600080546104a1565b600061052c6000600201548361027e565b600181905592915050565b600254600090821061055c57604051637db3aba760e01b815260040160405180910390fd5b6102f582600160006002015461057291906106ff565b61018691906106ff565b60025460009082106105a157604051637db3aba760e01b815260040160405180910390fd5b60008054905b8381146105c557816002015491506105be81610725565b90506105a7565b5092915050565b600080836040516020016105ff9190815460ff161515815260018201546020820152600290910154604082015260600190565b604051602081830303815290604052805190602001209050600061062882858760020154610639565b600290950191909155509192915050565b8254839060ff16156106915760405162461bcd60e51b815260206004820152601f60248201527f6572726f723a206e6f646520616c726561647920696e697469616c697a656400604482015260640160405180910390fd5b805460ff1916600190811782558101929092556002820155919050565b6000602082840312156106c057600080fd5b5035919050565b600080604083850312156106da57600080fd5b50508035926020909101359150565b634e487b7160e01b600052601160045260246000fd5b818103818111156102f5576102f56106e9565b808201808211156102f5576102f56106e9565b600060018201610737576107376106e9565b506001019056fea264697066735822122034d66eb8d4b8dc7fa94bc01cff9e76a0eed396aefd8714a59ad960f93923998564736f6c63430008110033",
    "linkReferences": {}
  },
  "methodIdentifiers": {
    "back()": "8dde0840",
    "dequeue()": "957908d1",
    "empty()": "f2a75fe4",
    "enqueue(uint256)": "1ffc735d",
    "erase(uint256)": "1007f753",
    "front()": "ba75bbd8",
    "insert(uint256,uint256)": "1d834a1b",
    "pop_back()": "7abbc49a",
    "pop_front()": "23b3331e",
    "push_back(uint256)": "cf120ec0",
    "push_front(uint256)": "3100c3d6",
    "size()": "949d225d",
    "value_at(uint256)": "a0238388",
    "value_n_from_end(uint256)": "edfc61fb"
  },
  "id": 7
}