{
  "abi": [
    {
      "inputs": [
        {
          "internalType": "string",
          "name": "varName",
          "type": "string"
        },
        {
          "internalType": "uint256",
          "name": "index",
          "type": "uint256"
        }
      ],
      "name": "atIndex",
      "outputs": [
        {
          "internalType": "uint256",
          "name": "",
          "type": "uint256"
        }
      ],
      "stateMutability": "view",
      "type": "function"
    },
    {
      "inputs": [
        {
          "internalType": "string",
          "name": "varName",
          "type": "string"
        },
        {
          "internalType": "uint256",
          "name": "index",
          "type": "uint256"
        }
      ],
      "name": "deleteIndex",
      "outputs": [],
      "stateMutability": "nonpayable",
      "type": "function"
    },
    {
      "inputs": [
        {
          "internalType": "string",
          "name": "varName",
          "type": "string"
        },
        {
          "internalType": "uint256",
          "name": "item",
          "type": "uint256"
        }
      ],
      "name": "find",
      "outputs": [
        {
          "internalType": "bool",
          "name": "",
          "type": "bool"
        },
        {
          "internalType": "uint256",
          "name": "",
          "type": "uint256"
        }
      ],
      "stateMutability": "view",
      "type": "function"
    },
    {
      "inputs": [
        {
          "internalType": "string",
          "name": "varName",
          "type": "string"
        }
      ],
      "name": "initializeArray",
      "outputs": [
        {
          "internalType": "bytes32",
          "name": "start",
          "type": "bytes32"
        }
      ],
      "stateMutability": "nonpayable",
      "type": "function"
    },
    {
      "inputs": [
        {
          "internalType": "string",
          "name": "varName",
          "type": "string"
        },
        {
          "internalType": "uint256",
          "name": "index",
          "type": "uint256"
        },
        {
          "internalType": "uint256",
          "name": "item",
          "type": "uint256"
        }
      ],
      "name": "insert",
      "outputs": [],
      "stateMutability": "nonpayable",
      "type": "function"
    },
    {
      "inputs": [
        {
          "internalType": "string",
          "name": "varName",
          "type": "string"
        }
      ],
      "name": "isEmpty",
      "outputs": [
        {
          "internalType": "bool",
          "name": "",
          "type": "bool"
        }
      ],
      "stateMutability": "view",
      "type": "function"
    },
    {
      "inputs": [
        {
          "internalType": "string",
          "name": "varName",
          "type": "string"
        }
      ],
      "name": "pop",
      "outputs": [],
      "stateMutability": "nonpayable",
      "type": "function"
    },
    {
      "inputs": [
        {
          "internalType": "string",
          "name": "varName",
          "type": "string"
        },
        {
          "internalType": "uint256",
          "name": "item",
          "type": "uint256"
        }
      ],
      "name": "prepend",
      "outputs": [],
      "stateMutability": "nonpayable",
      "type": "function"
    },
    {
      "inputs": [
        {
          "internalType": "string",
          "name": "varName",
          "type": "string"
        },
        {
          "internalType": "uint256",
          "name": "val",
          "type": "uint256"
        }
      ],
      "name": "push",
      "outputs": [],
      "stateMutability": "nonpayable",
      "type": "function"
    },
    {
      "inputs": [
        {
          "internalType": "string",
          "name": "varName",
          "type": "string"
        },
        {
          "internalType": "uint256",
          "name": "item",
          "type": "uint256"
        }
      ],
      "name": "remove",
      "outputs": [],
      "stateMutability": "nonpayable",
      "type": "function"
    },
    {
      "inputs": [
        {
          "internalType": "string",
          "name": "varName",
          "type": "string"
        }
      ],
      "name": "size",
      "outputs": [
        {
          "internalType": "uint256",
          "name": "",
          "type": "uint256"
        }
      ],
      "stateMutability": "view",
      "type": "function"
    },
    {
      "inputs": [
        {
          "internalType": "string",
          "name": "varName",
          "type": "string"
        },
        {
          "internalType": "uint256",
          "name": "index",
          "type": "uint256"
        }
      ],
      "name": "uintAtIndex",
      "outputs": [
        {
          "internalType": "uint256",
          "name": "",
          "type": "uint256"
        }
      ],
      "stateMutability": "view",
      "type": "function"
    }
  ],
  "bytecode": {
    "object": "0x608060405234801561001057600080fd5b50610adb806100206000396000f3fe608060405234801561001057600080fd5b50600436106100b45760003560e01c8063827d40d211610071578063827d40d214610150578063883e892f1461016357806396e1e4bc1461013d578063ce86990314610176578063f490189814610189578063f806ab5a146101b357600080fd5b806311b245a3146100b9578063131ff02e146100ce5780631af1d426146100f457806327341c8a14610107578063312ea9991461012a5780635e6dd62f1461013d575b600080fd5b6100cc6100c7366004610896565b6101c6565b005b6100e16100dc3660046108db565b6101dd565b6040519081526020015b60405180910390f35b6100cc610102366004610896565b6101f1565b61011a6101153660046108db565b610207565b60405190151581526020016100eb565b6100cc610138366004610918565b610220565b6100e161014b366004610896565b610233565b6100cc61015e366004610896565b61024e565b6100cc6101713660046108db565b610260565b6100e16101843660046108db565b610274565b61019c610197366004610896565b610289565b6040805192151583526020830191909152016100eb565b6100cc6101c1366004610896565b610321565b6101d86101d283610333565b82610366565b505050565b6000806101e9836103b8565b549392505050565b6102036101fd83610333565b82610454565b5050565b600061021a61021583610333565b610460565b92915050565b6101d861022c84610333565b8383610474565b600061024761024184610333565b8361049c565b9392505050565b61020361025a83610333565b8261050a565b61027161026c82610333565b61056b565b50565b600061021a61028283610333565b6001015490565b60008073__$296c25f3d1647de012d05463965a4f2d8c$__638ff276c56102af86610333565b856040518363ffffffff1660e01b81526004016102d6929190918252602082015260400190565b6040805180830381865af41580156102f2573d6000803e3d6000fd5b505050506040513d601f19601f820116820180604052508101906103169190610966565b915091509250929050565b61020361032d83610333565b826105dd565b6000808260405160200161034791906109df565b60408051601f1981840301815291905280516020909101209392505050565b6000805b83600101548110156103b15782610381858361049c565b036103a1576103948482600160006105f8565b5061039e82610a08565b91505b6103aa81610a08565b905061036a565b5092915050565b60006103c382610333565b80549091501561041a5760405162461bcd60e51b815260206004820152601960248201527f417272617920616c726561647920696e697469616c697a65640000000000000060448201526064015b60405180910390fd5b81600060405160200161042e929190610a21565b60408051601f198184030181529190528051602090910120815560006001820155919050565b61020382600083610474565b600061046d826001015490565b1592915050565b8183600101541161048457600080fd5b600061049384846001806105f8565b91909155505050565b6000818360010154116104f15760405162461bcd60e51b815260206004820152601f60248201527f6572726f722075696e744174496e6465783a206f7574206f662072616e6765006044820152606401610411565b8254600090610501908490610a46565b54949350505050565b8082600101541161055d5760405162461bcd60e51b815260206004820181905260248201527f6572726f722064656c657465496e6465783a206f7574206f6620626f756e64736044820152606401610411565b6101d88282600160006105f8565b60008160010154116105bf5760405162461bcd60e51b815260206004820152601960248201527f6572726f7220706f703a206e6f7468696e6720746f20706f70000000000000006044820152606401610411565b61020381600183600101546105d49190610a59565b600160006105f8565b60006105f08384600101546001806105f8565b919091555050565b600081156106f257846001016000815461061190610a08565b90915550600084900361063257845461062b908490610a59565b85556107dd565b600060028587600101546106469190610a6c565b1080610656575060038660010154105b9050801561069f57855461066b908590610a59565b8087555b865461067c908790610a46565b8110156106995784810354815561069281610a08565b905061066f565b506106ec565b6001868101548754600092916106b491610a46565b6106be9190610a59565b90505b86546106ce908790610a46565b81106106ea578481015481556106e381610a8e565b90506106c1565b505b506107dd565b846001016000815461070390610a8e565b90915550600084900361071d57845461062b908490610a46565b600060028587600101546107319190610a6c565b1080610741575060038660010154105b9050801561078e578554610756908590610a46565b808755600090610767908790610a46565b90505b865481106107885784810154815561078181610a8e565b905061076a565b506107db565b6001868101548754600092916107a391610a46565b6107ad9190610a59565b90505b86546107bd908790610a46565b81106107d9578481035481556107d281610a8e565b90506107b0565b505b505b84546107ea908590610a46565b95945050505050565b634e487b7160e01b600052604160045260246000fd5b600082601f83011261081a57600080fd5b813567ffffffffffffffff80821115610835576108356107f3565b604051601f8301601f19908116603f0116810190828211818310171561085d5761085d6107f3565b8160405283815286602085880101111561087657600080fd5b836020870160208301376000602085830101528094505050505092915050565b600080604083850312156108a957600080fd5b823567ffffffffffffffff8111156108c057600080fd5b6108cc85828601610809565b95602094909401359450505050565b6000602082840312156108ed57600080fd5b813567ffffffffffffffff81111561090457600080fd5b61091084828501610809565b949350505050565b60008060006060848603121561092d57600080fd5b833567ffffffffffffffff81111561094457600080fd5b61095086828701610809565b9660208601359650604090950135949350505050565b6000806040838503121561097957600080fd5b8251801515811461098957600080fd5b6020939093015192949293505050565b6000815180845260005b818110156109bf576020818501810151868301820152016109a3565b506000602082860101526020601f19601f83011685010191505092915050565b6020815260006102476020830184610999565b634e487b7160e01b600052601160045260246000fd5b600060018201610a1a57610a1a6109f2565b5060010190565b604081526000610a346040830185610999565b905060ff831660208301529392505050565b8082018082111561021a5761021a6109f2565b8181038181111561021a5761021a6109f2565b600082610a8957634e487b7160e01b600052601260045260246000fd5b500490565b600081610a9d57610a9d6109f2565b50600019019056fea2646970667358221220f6aaaf9bf148ec2b432eaca359062852d8eb5a72c9e5f43c8390694383cc597164736f6c63430008110033",
    "linkReferences": {
      "src/PointerArray.sol": {
        "Storage": [
          {
            "start": 686,
            "length": 20
          }
        ]
      }
    }
  },
  "methodIdentifiers": {
    "atIndex(string,uint256)": "96e1e4bc",
    "deleteIndex(string,uint256)": "827d40d2",
    "find(string,uint256)": "f4901898",
    "initializeArray(string)": "131ff02e",
    "insert(string,uint256,uint256)": "312ea999",
    "isEmpty(string)": "27341c8a",
    "pop(string)": "883e892f",
    "prepend(string,uint256)": "1af1d426",
    "push(string,uint256)": "f806ab5a",
    "remove(string,uint256)": "11b245a3",
    "size(string)": "ce869903",
    "uintAtIndex(string,uint256)": "5e6dd62f"
  },
  "id": 7
}