{
  "abi": [
    {
      "inputs": [
        {
          "internalType": "string",
          "name": "varName",
          "type": "string"
        },
        {
          "internalType": "uint256",
          "name": "index",
          "type": "uint256"
        }
      ],
      "name": "atIndex",
      "outputs": [
        {
          "internalType": "uint256",
          "name": "",
          "type": "uint256"
        }
      ],
      "stateMutability": "view",
      "type": "function"
    },
    {
      "inputs": [
        {
          "internalType": "string",
          "name": "varName",
          "type": "string"
        },
        {
          "internalType": "uint256",
          "name": "index",
          "type": "uint256"
        }
      ],
      "name": "deleteIndex",
      "outputs": [],
      "stateMutability": "nonpayable",
      "type": "function"
    },
    {
      "inputs": [
        {
          "internalType": "string",
          "name": "varName",
          "type": "string"
        },
        {
          "internalType": "uint256",
          "name": "item",
          "type": "uint256"
        }
      ],
      "name": "find",
      "outputs": [
        {
          "internalType": "bool",
          "name": "",
          "type": "bool"
        },
        {
          "internalType": "uint256",
          "name": "",
          "type": "uint256"
        }
      ],
      "stateMutability": "view",
      "type": "function"
    },
    {
      "inputs": [
        {
          "internalType": "string",
          "name": "varName",
          "type": "string"
        }
      ],
      "name": "initializeArray",
      "outputs": [
        {
          "internalType": "bytes32",
          "name": "start",
          "type": "bytes32"
        }
      ],
      "stateMutability": "nonpayable",
      "type": "function"
    },
    {
      "inputs": [
        {
          "internalType": "string",
          "name": "varName",
          "type": "string"
        },
        {
          "internalType": "uint256",
          "name": "index",
          "type": "uint256"
        },
        {
          "internalType": "uint256",
          "name": "item",
          "type": "uint256"
        }
      ],
      "name": "insert",
      "outputs": [],
      "stateMutability": "nonpayable",
      "type": "function"
    },
    {
      "inputs": [
        {
          "internalType": "string",
          "name": "varName",
          "type": "string"
        }
      ],
      "name": "isEmpty",
      "outputs": [
        {
          "internalType": "bool",
          "name": "",
          "type": "bool"
        }
      ],
      "stateMutability": "view",
      "type": "function"
    },
    {
      "inputs": [
        {
          "internalType": "string",
          "name": "varName",
          "type": "string"
        }
      ],
      "name": "pop",
      "outputs": [],
      "stateMutability": "nonpayable",
      "type": "function"
    },
    {
      "inputs": [
        {
          "internalType": "string",
          "name": "varName",
          "type": "string"
        },
        {
          "internalType": "uint256",
          "name": "item",
          "type": "uint256"
        }
      ],
      "name": "prepend",
      "outputs": [],
      "stateMutability": "nonpayable",
      "type": "function"
    },
    {
      "inputs": [
        {
          "internalType": "string",
          "name": "varName",
          "type": "string"
        },
        {
          "internalType": "uint256",
          "name": "val",
          "type": "uint256"
        }
      ],
      "name": "push",
      "outputs": [],
      "stateMutability": "nonpayable",
      "type": "function"
    },
    {
      "inputs": [
        {
          "internalType": "string",
          "name": "varName",
          "type": "string"
        },
        {
          "internalType": "uint256",
          "name": "item",
          "type": "uint256"
        }
      ],
      "name": "remove",
      "outputs": [],
      "stateMutability": "nonpayable",
      "type": "function"
    },
    {
      "inputs": [
        {
          "internalType": "string",
          "name": "varName",
          "type": "string"
        }
      ],
      "name": "returnFullArray",
      "outputs": [
        {
          "internalType": "uint256[]",
          "name": "arr",
          "type": "uint256[]"
        }
      ],
      "stateMutability": "view",
      "type": "function"
    },
    {
      "inputs": [
        {
          "internalType": "string",
          "name": "varName",
          "type": "string"
        }
      ],
      "name": "size",
      "outputs": [
        {
          "internalType": "uint256",
          "name": "",
          "type": "uint256"
        }
      ],
      "stateMutability": "view",
      "type": "function"
    },
    {
      "inputs": [
        {
          "internalType": "string",
          "name": "varName",
          "type": "string"
        },
        {
          "internalType": "uint256",
          "name": "index",
          "type": "uint256"
        }
      ],
      "name": "uintAtIndex",
      "outputs": [
        {
          "internalType": "uint256",
          "name": "",
          "type": "uint256"
        }
      ],
      "stateMutability": "view",
      "type": "function"
    }
  ],
  "bytecode": {
    "object": "0x608060405234801561001057600080fd5b50610bd8806100206000396000f3fe608060405234801561001057600080fd5b50600436106100cf5760003560e01c80635e6dd62f1161008c57806396e1e4bc1161006657806396e1e4bc14610178578063ce869903146101b1578063f4901898146101c4578063f806ab5a146101ee57600080fd5b80635e6dd62f14610178578063827d40d21461018b578063883e892f1461019e57600080fd5b806311b245a3146100d4578063131ff02e146100e95780631af1d4261461010f578063212d2c391461012257806327341c8a14610142578063312ea99914610165575b600080fd5b6100e76100e2366004610939565b610201565b005b6100fc6100f736600461097e565b610218565b6040519081526020015b60405180910390f35b6100e761011d366004610939565b61022c565b61013561013036600461097e565b610242565b60405161010691906109bb565b61015561015036600461097e565b610294565b6040519015158152602001610106565b6100e76101733660046109ff565b6102ad565b6100fc610186366004610939565b6102c0565b6100e7610199366004610939565b6102db565b6100e76101ac36600461097e565b6102ed565b6100fc6101bf36600461097e565b610301565b6101d76101d2366004610939565b610316565b604080519215158352602083019190915201610106565b6100e76101fc366004610939565b6103ae565b61021361020d836103c0565b826103f3565b505050565b60008061022483610445565b549392505050565b61023e610238836103c0565b826104e1565b5050565b606060005b61025083610301565b81101561028e5761026183826102c0565b82828151811061027357610273610a4d565b602090810291909101015261028781610a79565b9050610247565b50919050565b60006102a76102a2836103c0565b6104ed565b92915050565b6102136102b9846103c0565b8383610501565b60006102d46102ce846103c0565b83610529565b9392505050565b61023e6102e7836103c0565b82610597565b6102fe6102f9826103c0565b6105f8565b50565b60006102a761030f836103c0565b6001015490565b60008073__$296c25f3d1647de012d05463965a4f2d8c$__638ff276c561033c866103c0565b856040518363ffffffff1660e01b8152600401610363929190918252602082015260400190565b6040805180830381865af415801561037f573d6000803e3d6000fd5b505050506040513d601f19601f820116820180604052508101906103a39190610a92565b915091509250929050565b61023e6103ba836103c0565b8261066a565b600080826040516020016103d49190610b0b565b60408051601f1981840301815291905280516020909101209392505050565b6000805b836001015481101561043e578261040e8583610529565b0361042e5761042184826001600061069b565b5061042b82610a79565b91505b61043781610a79565b90506103f7565b5092915050565b6000610450826103c0565b8054909150156104a75760405162461bcd60e51b815260206004820152601960248201527f417272617920616c726561647920696e697469616c697a65640000000000000060448201526064015b60405180910390fd5b8160006040516020016104bb929190610b1e565b60408051601f198184030181529190528051602090910120815560006001820155919050565b61023e82600083610501565b60006104fa826001015490565b1592915050565b8183600101541161051157600080fd5b6000610520848460018061069b565b91909155505050565b60008183600101541161057e5760405162461bcd60e51b815260206004820152601f60248201527f6572726f722075696e744174496e6465783a206f7574206f662072616e676500604482015260640161049e565b825460009061058e908490610b43565b54949350505050565b808260010154116105ea5760405162461bcd60e51b815260206004820181905260248201527f6572726f722064656c657465496e6465783a206f7574206f6620626f756e6473604482015260640161049e565b61021382826001600061069b565b600081600101541161064c5760405162461bcd60e51b815260206004820152601960248201527f6572726f7220706f703a206e6f7468696e6720746f20706f7000000000000000604482015260640161049e565b61023e81600183600101546106619190610b56565b6001600061069b565b6001820154825460009161067d91610b43565b60001b9050826001016000815461069390610a79565b909155505550565b600081156107955784600101600081546106b490610a79565b9091555060008490036106d55784546106ce908490610b56565b8555610880565b600060028587600101546106e99190610b69565b10806106f9575060038660010154105b9050801561074257855461070e908590610b56565b8087555b865461071f908790610b43565b81101561073c5784810354815561073581610a79565b9050610712565b5061078f565b60018681015487546000929161075791610b43565b6107619190610b56565b90505b8654610771908790610b43565b811061078d5784810154815561078681610b8b565b9050610764565b505b50610880565b84600101600081546107a690610b8b565b9091555060008490036107c05784546106ce908490610b43565b600060028587600101546107d49190610b69565b10806107e4575060038660010154105b905080156108315785546107f9908590610b43565b80875560009061080a908790610b43565b90505b8654811061082b5784810154815561082481610b8b565b905061080d565b5061087e565b60018681015487546000929161084691610b43565b6108509190610b56565b90505b8654610860908790610b43565b811061087c5784810354815561087581610b8b565b9050610853565b505b505b845461088d908590610b43565b95945050505050565b634e487b7160e01b600052604160045260246000fd5b600082601f8301126108bd57600080fd5b813567ffffffffffffffff808211156108d8576108d8610896565b604051601f8301601f19908116603f0116810190828211818310171561090057610900610896565b8160405283815286602085880101111561091957600080fd5b836020870160208301376000602085830101528094505050505092915050565b6000806040838503121561094c57600080fd5b823567ffffffffffffffff81111561096357600080fd5b61096f858286016108ac565b95602094909401359450505050565b60006020828403121561099057600080fd5b813567ffffffffffffffff8111156109a757600080fd5b6109b3848285016108ac565b949350505050565b6020808252825182820181905260009190848201906040850190845b818110156109f3578351835292840192918401916001016109d7565b50909695505050505050565b600080600060608486031215610a1457600080fd5b833567ffffffffffffffff811115610a2b57600080fd5b610a37868287016108ac565b9660208601359650604090950135949350505050565b634e487b7160e01b600052603260045260246000fd5b634e487b7160e01b600052601160045260246000fd5b600060018201610a8b57610a8b610a63565b5060010190565b60008060408385031215610aa557600080fd5b82518015158114610ab557600080fd5b6020939093015192949293505050565b6000815180845260005b81811015610aeb57602081850181015186830182015201610acf565b506000602082860101526020601f19601f83011685010191505092915050565b6020815260006102d46020830184610ac5565b604081526000610b316040830185610ac5565b905060ff831660208301529392505050565b808201808211156102a7576102a7610a63565b818103818111156102a7576102a7610a63565b600082610b8657634e487b7160e01b600052601260045260246000fd5b500490565b600081610b9a57610b9a610a63565b50600019019056fea264697066735822122030edf487ffebe422169500bf6c9e74328a48d5c6a00405c871d8ca64195518f764736f6c63430008110033",
    "linkReferences": {
      "src/PointerArray.sol": {
        "Storage": [
          {
            "start": 827,
            "length": 20
          }
        ]
      }
    }
  },
  "methodIdentifiers": {
    "atIndex(string,uint256)": "96e1e4bc",
    "deleteIndex(string,uint256)": "827d40d2",
    "find(string,uint256)": "f4901898",
    "initializeArray(string)": "131ff02e",
    "insert(string,uint256,uint256)": "312ea999",
    "isEmpty(string)": "27341c8a",
    "pop(string)": "883e892f",
    "prepend(string,uint256)": "1af1d426",
    "push(string,uint256)": "f806ab5a",
    "remove(string,uint256)": "11b245a3",
    "returnFullArray(string)": "212d2c39",
    "size(string)": "ce869903",
    "uintAtIndex(string,uint256)": "5e6dd62f"
  },
  "id": 8
}