{
  "abi": [
    {
      "inputs": [],
      "name": "EmptyList",
      "type": "error"
    },
    {
      "inputs": [],
      "name": "OutOfRange",
      "type": "error"
    },
    {
      "inputs": [],
      "name": "back",
      "outputs": [
        {
          "internalType": "uint256",
          "name": "",
          "type": "uint256"
        }
      ],
      "stateMutability": "view",
      "type": "function"
    },
    {
      "inputs": [],
      "name": "empty",
      "outputs": [
        {
          "internalType": "bool",
          "name": "",
          "type": "bool"
        }
      ],
      "stateMutability": "view",
      "type": "function"
    },
    {
      "inputs": [
        {
          "internalType": "uint256",
          "name": "index",
          "type": "uint256"
        }
      ],
      "name": "erase",
      "outputs": [],
      "stateMutability": "nonpayable",
      "type": "function"
    },
    {
      "inputs": [],
      "name": "front",
      "outputs": [
        {
          "internalType": "uint256",
          "name": "",
          "type": "uint256"
        }
      ],
      "stateMutability": "view",
      "type": "function"
    },
    {
      "inputs": [
        {
          "internalType": "uint256",
          "name": "index",
          "type": "uint256"
        },
        {
          "internalType": "uint256",
          "name": "val",
          "type": "uint256"
        }
      ],
      "name": "insert",
      "outputs": [],
      "stateMutability": "nonpayable",
      "type": "function"
    },
    {
      "inputs": [],
      "name": "pop_back",
      "outputs": [],
      "stateMutability": "nonpayable",
      "type": "function"
    },
    {
      "inputs": [],
      "name": "pop_front",
      "outputs": [],
      "stateMutability": "nonpayable",
      "type": "function"
    },
    {
      "inputs": [
        {
          "internalType": "uint256",
          "name": "val",
          "type": "uint256"
        }
      ],
      "name": "push_back",
      "outputs": [],
      "stateMutability": "nonpayable",
      "type": "function"
    },
    {
      "inputs": [
        {
          "internalType": "uint256",
          "name": "val",
          "type": "uint256"
        }
      ],
      "name": "push_front",
      "outputs": [],
      "stateMutability": "nonpayable",
      "type": "function"
    },
    {
      "inputs": [
        {
          "internalType": "uint256",
          "name": "value",
          "type": "uint256"
        }
      ],
      "name": "remove_value",
      "outputs": [
        {
          "internalType": "bytes32",
          "name": "",
          "type": "bytes32"
        }
      ],
      "stateMutability": "nonpayable",
      "type": "function"
    },
    {
      "inputs": [],
      "name": "size",
      "outputs": [
        {
          "internalType": "uint256",
          "name": "",
          "type": "uint256"
        }
      ],
      "stateMutability": "view",
      "type": "function"
    },
    {
      "inputs": [
        {
          "internalType": "uint256",
          "name": "index",
          "type": "uint256"
        }
      ],
      "name": "value_at",
      "outputs": [
        {
          "internalType": "uint256",
          "name": "",
          "type": "uint256"
        }
      ],
      "stateMutability": "view",
      "type": "function"
    },
    {
      "inputs": [
        {
          "internalType": "uint256",
          "name": "n",
          "type": "uint256"
        }
      ],
      "name": "value_n_from_end",
      "outputs": [
        {
          "internalType": "uint256",
          "name": "",
          "type": "uint256"
        }
      ],
      "stateMutability": "view",
      "type": "function"
    }
  ],
  "bytecode": {
    "object": "0x608060405234801561001057600080fd5b50610787806100206000396000f3fe608060405234801561001057600080fd5b50600436106100cf5760003560e01c8063949d225d1161008c578063cf120ec011610066578063cf120ec01461015d578063d1a7953914610170578063edfc61fb14610183578063f2a75fe41461019657600080fd5b8063949d225d1461013a578063a023838814610142578063ba75bbd81461015557600080fd5b80631007f753146100d45780631d834a1b146100e957806323b3331e146100fc5780633100c3d6146101045780637abbc49a146101175780638dde08401461011f575b600080fd5b6100e76100e23660046106c1565b6101ae565b005b6100e76100f73660046106da565b61023f565b6100e76102aa565b6100e76101123660046106c1565b610301565b6100e7610369565b6101276103e7565b6040519081526020015b60405180910390f35b600154610127565b6101276101503660046106c1565b61042d565b610127610465565b6100e761016b3660046106c1565b610493565b61012761017e3660046106c1565b6104a0565b6101276101913660046106c1565b610533565b61019e61057e565b6040519015158152602001610131565b60015481106101d057604051637db3aba760e01b815260040160405180910390fd5b806000036101e3576101e06102aa565b50565b60006101f86101f3600184610712565b61058f565b90506000610207826002015490565b905061021c81805460ff191681556002015490565b6002830155600180548190600090610235908390610712565b9091555050505050565b60015482111561026257604051637db3aba760e01b815260040160405180910390fd5b816000036102775761027381610301565b5050565b60006102876101f3600185610712565b905061029381836105df565b506001600060010160008282546102359190610725565b6001546000036102cd576040516301857f4f60e61b815260040160405180910390fd5b60008054805460ff1916815560028101548083556001805492939192909182916102f8908390610712565b90915550505050565b6001546000901561031157506000545b6040805160005460208201526001549181019190915260600160408051601f198184030181529190528051602090910120600081905561035290838361064c565b506001600060010160008282546102f89190610725565b60015460000361038c576040516301857f4f60e61b815260040160405180910390fd5b60006103a360026000600101546101f39190610712565b90506103c26103b3826002015490565b805460ff191681556002015490565b5060006002820181905560018054909182916103df908390610712565b909155505050565b600154600090810361040c576040516301857f4f60e61b815260040160405180910390fd5b600061042360016000600101546101f39190610712565b6001015491505090565b600154600090821061045257604051637db3aba760e01b815260040160405180910390fd5b61045b8261058f565b6001015492915050565b600154600090810361048a576040516301857f4f60e61b815260040160405180910390fd5b60008054610423565b6001546101e0908261023f565b60008054828160010154036104b7576104b76102aa565b60005b6001548110156105295760028201546001810154851480156104dd5750805460ff165b15610515576001600060010160008282546104f89190610712565b909155506105079050816103b3565b836002015550909392505050565b91508161052182610738565b9150506104ba565b5060009392505050565b600154600090821061055857604051637db3aba760e01b815260040160405180910390fd5b61057882600160006001015461056e9190610712565b6101509190610712565b92915050565b600061058960015490565b15919050565b60015460009082106105b457604051637db3aba760e01b815260040160405180910390fd5b60008054905b8381146105d857816002015491506105d181610738565b90506105ba565b5092915050565b600080836040516020016106129190815460ff161515815260018201546020820152600290910154604082015260600190565b604051602081830303815290604052805190602001209050600061063b8285876002015461064c565b600290950191909155509192915050565b8254839060ff16156106a45760405162461bcd60e51b815260206004820152601f60248201527f6572726f723a206e6f646520616c726561647920696e697469616c697a656400604482015260640160405180910390fd5b805460ff1916600190811782558101929092556002820155919050565b6000602082840312156106d357600080fd5b5035919050565b600080604083850312156106ed57600080fd5b50508035926020909101359150565b634e487b7160e01b600052601160045260246000fd5b81810381811115610578576105786106fc565b80820180821115610578576105786106fc565b60006001820161074a5761074a6106fc565b506001019056fea2646970667358221220a63356c36912382c69b91902215426ba96e4df7f2756ca91934c252864f1915e64736f6c63430008110033",
    "linkReferences": {}
  },
  "methodIdentifiers": {
    "back()": "8dde0840",
    "empty()": "f2a75fe4",
    "erase(uint256)": "1007f753",
    "front()": "ba75bbd8",
    "insert(uint256,uint256)": "1d834a1b",
    "pop_back()": "7abbc49a",
    "pop_front()": "23b3331e",
    "push_back(uint256)": "cf120ec0",
    "push_front(uint256)": "3100c3d6",
    "remove_value(uint256)": "d1a79539",
    "size()": "949d225d",
    "value_at(uint256)": "a0238388",
    "value_n_from_end(uint256)": "edfc61fb"
  },
  "id": 7
}