{
  "abi": [
    {
      "inputs": [
        {
          "internalType": "string",
          "name": "varName",
          "type": "string"
        },
        {
          "internalType": "uint256",
          "name": "index",
          "type": "uint256"
        }
      ],
      "name": "atIndex",
      "outputs": [
        {
          "internalType": "uint256",
          "name": "",
          "type": "uint256"
        }
      ],
      "stateMutability": "view",
      "type": "function"
    },
    {
      "inputs": [
        {
          "internalType": "string",
          "name": "varName",
          "type": "string"
        },
        {
          "internalType": "uint256",
          "name": "index",
          "type": "uint256"
        }
      ],
      "name": "deleteIndex",
      "outputs": [],
      "stateMutability": "nonpayable",
      "type": "function"
    },
    {
      "inputs": [
        {
          "internalType": "string",
          "name": "varName",
          "type": "string"
        }
      ],
      "name": "dequeue",
      "outputs": [],
      "stateMutability": "nonpayable",
      "type": "function"
    },
    {
      "inputs": [
        {
          "internalType": "string",
          "name": "varName",
          "type": "string"
        }
      ],
      "name": "empty",
      "outputs": [
        {
          "internalType": "bool",
          "name": "_empty",
          "type": "bool"
        }
      ],
      "stateMutability": "view",
      "type": "function"
    },
    {
      "inputs": [
        {
          "internalType": "string",
          "name": "varName",
          "type": "string"
        },
        {
          "internalType": "uint256",
          "name": "value",
          "type": "uint256"
        }
      ],
      "name": "enqueue",
      "outputs": [],
      "stateMutability": "nonpayable",
      "type": "function"
    },
    {
      "inputs": [
        {
          "internalType": "string",
          "name": "varName",
          "type": "string"
        },
        {
          "internalType": "uint256",
          "name": "item",
          "type": "uint256"
        }
      ],
      "name": "find",
      "outputs": [
        {
          "internalType": "bool",
          "name": "",
          "type": "bool"
        },
        {
          "internalType": "uint256",
          "name": "",
          "type": "uint256"
        }
      ],
      "stateMutability": "view",
      "type": "function"
    },
    {
      "inputs": [
        {
          "internalType": "string",
          "name": "varName",
          "type": "string"
        }
      ],
      "name": "initializeArray",
      "outputs": [
        {
          "internalType": "bytes32",
          "name": "start",
          "type": "bytes32"
        }
      ],
      "stateMutability": "nonpayable",
      "type": "function"
    },
    {
      "inputs": [
        {
          "internalType": "string",
          "name": "varName",
          "type": "string"
        },
        {
          "internalType": "uint256",
          "name": "index",
          "type": "uint256"
        },
        {
          "internalType": "uint256",
          "name": "item",
          "type": "uint256"
        }
      ],
      "name": "insert",
      "outputs": [],
      "stateMutability": "nonpayable",
      "type": "function"
    },
    {
      "inputs": [
        {
          "internalType": "string",
          "name": "varName",
          "type": "string"
        }
      ],
      "name": "isEmpty",
      "outputs": [
        {
          "internalType": "bool",
          "name": "",
          "type": "bool"
        }
      ],
      "stateMutability": "view",
      "type": "function"
    },
    {
      "inputs": [
        {
          "internalType": "string",
          "name": "varName",
          "type": "string"
        }
      ],
      "name": "pop",
      "outputs": [],
      "stateMutability": "nonpayable",
      "type": "function"
    },
    {
      "inputs": [
        {
          "internalType": "string",
          "name": "varName",
          "type": "string"
        },
        {
          "internalType": "uint256",
          "name": "item",
          "type": "uint256"
        }
      ],
      "name": "prepend",
      "outputs": [],
      "stateMutability": "nonpayable",
      "type": "function"
    },
    {
      "inputs": [
        {
          "internalType": "string",
          "name": "varName",
          "type": "string"
        },
        {
          "internalType": "uint256",
          "name": "val",
          "type": "uint256"
        }
      ],
      "name": "push",
      "outputs": [],
      "stateMutability": "nonpayable",
      "type": "function"
    },
    {
      "inputs": [
        {
          "internalType": "string",
          "name": "varName",
          "type": "string"
        },
        {
          "internalType": "uint256",
          "name": "item",
          "type": "uint256"
        }
      ],
      "name": "remove",
      "outputs": [],
      "stateMutability": "nonpayable",
      "type": "function"
    },
    {
      "inputs": [
        {
          "internalType": "string",
          "name": "varName",
          "type": "string"
        }
      ],
      "name": "returnFullArray",
      "outputs": [
        {
          "internalType": "uint256[]",
          "name": "arr",
          "type": "uint256[]"
        }
      ],
      "stateMutability": "view",
      "type": "function"
    },
    {
      "inputs": [
        {
          "internalType": "string",
          "name": "varName",
          "type": "string"
        }
      ],
      "name": "size",
      "outputs": [
        {
          "internalType": "uint256",
          "name": "",
          "type": "uint256"
        }
      ],
      "stateMutability": "view",
      "type": "function"
    },
    {
      "inputs": [
        {
          "internalType": "string",
          "name": "varName",
          "type": "string"
        },
        {
          "internalType": "uint256",
          "name": "index",
          "type": "uint256"
        }
      ],
      "name": "uintAtIndex",
      "outputs": [
        {
          "internalType": "uint256",
          "name": "",
          "type": "uint256"
        }
      ],
      "stateMutability": "view",
      "type": "function"
    }
  ],
  "bytecode": {
    "object": "0x608060405234801561001057600080fd5b50610c62806100206000396000f3fe608060405234801561001057600080fd5b50600436106101005760003560e01c806364de095a1161009757806396e1e4bc1161006657806396e1e4bc146101bc578063ce8699031461021b578063f49018981461022e578063f806ab5a1461025857600080fd5b806364de095a146101cf5780636f1512e2146101e2578063827d40d2146101f5578063883e892f1461020857600080fd5b806327341c8a116100d357806327341c8a14610173578063312ea9991461019657806351111224146101a95780635e6dd62f146101bc57600080fd5b806311b245a314610105578063131ff02e1461011a5780631af1d42614610140578063212d2c3914610153575b600080fd5b6101186101133660046109c3565b61026b565b005b61012d610128366004610a08565b610282565b6040519081526020015b60405180910390f35b61011861014e3660046109c3565b610296565b610166610161366004610a08565b6102ac565b6040516101379190610a45565b610186610181366004610a08565b6102fe565b6040519015158152602001610137565b6101186101a4366004610a89565b610317565b6101186101b73660046109c3565b61032a565b61012d6101ca3660046109c3565b610334565b6101866101dd366004610a08565b61034f565b6101186101f0366004610a08565b61035a565b6101186102033660046109c3565b610368565b610118610216366004610a08565b61037a565b61012d610229366004610a08565b61038b565b61024161023c3660046109c3565b6103a0565b604080519215158352602083019190915201610137565b6101186102663660046109c3565b610438565b61027d6102778361044a565b8261047d565b505050565b60008061028e836104cf565b549392505050565b6102a86102a28361044a565b8261056b565b5050565b606060005b6102ba8361038b565b8110156102f8576102cb8382610334565b8282815181106102dd576102dd610ad7565b60209081029190910101526102f181610b03565b90506102b1565b50919050565b600061031161030c8361044a565b610577565b92915050565b61027d6103238461044a565b838361058b565b6102a88282610438565b60006103486103428461044a565b836105b3565b9392505050565b6000610311826102fe565b610365816000610368565b50565b6102a86103748361044a565b82610621565b6103656103868261044a565b610682565b60006103116103998361044a565b6001015490565b60008073__$296c25f3d1647de012d05463965a4f2d8c$__638ff276c56103c68661044a565b856040518363ffffffff1660e01b81526004016103ed929190918252602082015260400190565b6040805180830381865af4158015610409573d6000803e3d6000fd5b505050506040513d601f19601f8201168201806040525081019061042d9190610b1c565b915091509250929050565b6102a86104448361044a565b826106f4565b6000808260405160200161045e9190610b95565b60408051601f1981840301815291905280516020909101209392505050565b6000805b83600101548110156104c8578261049885836105b3565b036104b8576104ab848260016000610725565b506104b582610b03565b91505b6104c181610b03565b9050610481565b5092915050565b60006104da8261044a565b8054909150156105315760405162461bcd60e51b815260206004820152601960248201527f417272617920616c726561647920696e697469616c697a65640000000000000060448201526064015b60405180910390fd5b816000604051602001610545929190610ba8565b60408051601f198184030181529190528051602090910120815560006001820155919050565b6102a88260008361058b565b6000610584826001015490565b1592915050565b8183600101541161059b57600080fd5b60006105aa8484600180610725565b91909155505050565b6000818360010154116106085760405162461bcd60e51b815260206004820152601f60248201527f6572726f722075696e744174496e6465783a206f7574206f662072616e6765006044820152606401610528565b8254600090610618908490610bcd565b54949350505050565b808260010154116106745760405162461bcd60e51b815260206004820181905260248201527f6572726f722064656c657465496e6465783a206f7574206f6620626f756e64736044820152606401610528565b61027d828260016000610725565b60008160010154116106d65760405162461bcd60e51b815260206004820152601960248201527f6572726f7220706f703a206e6f7468696e6720746f20706f70000000000000006044820152606401610528565b6102a881600183600101546106eb9190610be0565b60016000610725565b6001820154825460009161070791610bcd565b60001b9050826001016000815461071d90610b03565b909155505550565b6000811561081f57846001016000815461073e90610b03565b90915550600084900361075f578454610758908490610be0565b855561090a565b600060028587600101546107739190610bf3565b1080610783575060038660010154105b905080156107cc578554610798908590610be0565b8087555b86546107a9908790610bcd565b8110156107c6578481035481556107bf81610b03565b905061079c565b50610819565b6001868101548754600092916107e191610bcd565b6107eb9190610be0565b90505b86546107fb908790610bcd565b81106108175784810154815561081081610c15565b90506107ee565b505b5061090a565b846001016000815461083090610c15565b90915550600084900361084a578454610758908490610bcd565b6000600285876001015461085e9190610bf3565b108061086e575060038660010154105b905080156108bb578554610883908590610bcd565b808755600090610894908790610bcd565b90505b865481106108b5578481015481556108ae81610c15565b9050610897565b50610908565b6001868101548754600092916108d091610bcd565b6108da9190610be0565b90505b86546108ea908790610bcd565b8110610906578481035481556108ff81610c15565b90506108dd565b505b505b8454610917908590610bcd565b95945050505050565b634e487b7160e01b600052604160045260246000fd5b600082601f83011261094757600080fd5b813567ffffffffffffffff8082111561096257610962610920565b604051601f8301601f19908116603f0116810190828211818310171561098a5761098a610920565b816040528381528660208588010111156109a357600080fd5b836020870160208301376000602085830101528094505050505092915050565b600080604083850312156109d657600080fd5b823567ffffffffffffffff8111156109ed57600080fd5b6109f985828601610936565b95602094909401359450505050565b600060208284031215610a1a57600080fd5b813567ffffffffffffffff811115610a3157600080fd5b610a3d84828501610936565b949350505050565b6020808252825182820181905260009190848201906040850190845b81811015610a7d57835183529284019291840191600101610a61565b50909695505050505050565b600080600060608486031215610a9e57600080fd5b833567ffffffffffffffff811115610ab557600080fd5b610ac186828701610936565b9660208601359650604090950135949350505050565b634e487b7160e01b600052603260045260246000fd5b634e487b7160e01b600052601160045260246000fd5b600060018201610b1557610b15610aed565b5060010190565b60008060408385031215610b2f57600080fd5b82518015158114610b3f57600080fd5b6020939093015192949293505050565b6000815180845260005b81811015610b7557602081850181015186830182015201610b59565b506000602082860101526020601f19601f83011685010191505092915050565b6020815260006103486020830184610b4f565b604081526000610bbb6040830185610b4f565b905060ff831660208301529392505050565b8082018082111561031157610311610aed565b8181038181111561031157610311610aed565b600082610c1057634e487b7160e01b600052601260045260246000fd5b500490565b600081610c2457610c24610aed565b50600019019056fea2646970667358221220db8e646165143d86b0d2db640cc2ffea454bbbf26e412f81651611d99be6213c64736f6c63430008110033",
    "linkReferences": {
      "src/PointerArray.sol": {
        "Storage": [
          {
            "start": 965,
            "length": 20
          }
        ]
      }
    }
  },
  "methodIdentifiers": {
    "atIndex(string,uint256)": "96e1e4bc",
    "deleteIndex(string,uint256)": "827d40d2",
    "dequeue(string)": "6f1512e2",
    "empty(string)": "64de095a",
    "enqueue(string,uint256)": "51111224",
    "find(string,uint256)": "f4901898",
    "initializeArray(string)": "131ff02e",
    "insert(string,uint256,uint256)": "312ea999",
    "isEmpty(string)": "27341c8a",
    "pop(string)": "883e892f",
    "prepend(string,uint256)": "1af1d426",
    "push(string,uint256)": "f806ab5a",
    "remove(string,uint256)": "11b245a3",
    "returnFullArray(string)": "212d2c39",
    "size(string)": "ce869903",
    "uintAtIndex(string,uint256)": "5e6dd62f"
  },
  "id": 7
}