{
  "abi": [
    {
      "inputs": [],
      "name": "EmptyList",
      "type": "error"
    },
    {
      "inputs": [],
      "name": "OutOfRange",
      "type": "error"
    },
    {
      "inputs": [],
      "name": "back",
      "outputs": [
        {
          "internalType": "uint256",
          "name": "",
          "type": "uint256"
        }
      ],
      "stateMutability": "view",
      "type": "function"
    },
    {
      "inputs": [],
      "name": "empty",
      "outputs": [
        {
          "internalType": "bool",
          "name": "",
          "type": "bool"
        }
      ],
      "stateMutability": "view",
      "type": "function"
    },
    {
      "inputs": [
        {
          "internalType": "uint256",
          "name": "index",
          "type": "uint256"
        }
      ],
      "name": "erase",
      "outputs": [],
      "stateMutability": "nonpayable",
      "type": "function"
    },
    {
      "inputs": [],
      "name": "front",
      "outputs": [
        {
          "internalType": "uint256",
          "name": "",
          "type": "uint256"
        }
      ],
      "stateMutability": "view",
      "type": "function"
    },
    {
      "inputs": [
        {
          "internalType": "uint256",
          "name": "index",
          "type": "uint256"
        },
        {
          "internalType": "uint256",
          "name": "val",
          "type": "uint256"
        }
      ],
      "name": "insert",
      "outputs": [
        {
          "internalType": "bytes32",
          "name": "newLoc",
          "type": "bytes32"
        }
      ],
      "stateMutability": "nonpayable",
      "type": "function"
    },
    {
      "inputs": [],
      "name": "pop_back",
      "outputs": [],
      "stateMutability": "nonpayable",
      "type": "function"
    },
    {
      "inputs": [],
      "name": "pop_front",
      "outputs": [],
      "stateMutability": "nonpayable",
      "type": "function"
    },
    {
      "inputs": [
        {
          "internalType": "uint256",
          "name": "val",
          "type": "uint256"
        }
      ],
      "name": "push_back",
      "outputs": [
        {
          "internalType": "bytes32",
          "name": "newTail",
          "type": "bytes32"
        }
      ],
      "stateMutability": "nonpayable",
      "type": "function"
    },
    {
      "inputs": [
        {
          "internalType": "uint256",
          "name": "val",
          "type": "uint256"
        }
      ],
      "name": "push_front",
      "outputs": [],
      "stateMutability": "nonpayable",
      "type": "function"
    },
    {
      "inputs": [],
      "name": "size",
      "outputs": [
        {
          "internalType": "uint256",
          "name": "",
          "type": "uint256"
        }
      ],
      "stateMutability": "view",
      "type": "function"
    },
    {
      "inputs": [
        {
          "internalType": "uint256",
          "name": "index",
          "type": "uint256"
        }
      ],
      "name": "value_at",
      "outputs": [
        {
          "internalType": "uint256",
          "name": "",
          "type": "uint256"
        }
      ],
      "stateMutability": "view",
      "type": "function"
    },
    {
      "inputs": [
        {
          "internalType": "uint256",
          "name": "n",
          "type": "uint256"
        }
      ],
      "name": "value_n_from_end",
      "outputs": [
        {
          "internalType": "uint256",
          "name": "",
          "type": "uint256"
        }
      ],
      "stateMutability": "view",
      "type": "function"
    }
  ],
  "bytecode": {
    "object": "0x608060405234801561001057600080fd5b50610724806100206000396000f3fe608060405234801561001057600080fd5b50600436106100b45760003560e01c8063949d225d11610071578063949d225d1461011f578063a023838814610127578063ba75bbd81461013a578063cf120ec014610142578063edfc61fb14610155578063f2a75fe41461016857600080fd5b80631007f753146100b95780631d834a1b146100ce57806323b3331e146100f45780633100c3d6146100fc5780637abbc49a1461010f5780638dde084014610117575b600080fd5b6100cc6100c736600461065e565b610180565b005b6100e16100dc366004610677565b610233565b6040519081526020015b60405180910390f35b6100cc6102b0565b6100cc61010a36600461065e565b610313565b6100cc61039f565b6100e161041e565b6002546100e1565b6100e161013536600461065e565b610454565b6100e161048c565b6100e161015036600461065e565b6104ba565b6100e161016336600461065e565b6104d6565b61017061051b565b60405190151581526020016100eb565b60025481106101a257604051637db3aba760e01b815260040160405180910390fd5b806000036101b5576101b26102b0565b50565b6002546101c4906001906106af565b81036101d2576101b261039f565b60006101e76101e26001846106af565b61052c565b905060006101f6826002015490565b905061020b81805460ff191681556002015490565b826002018190555060016000600201600082825461022991906106af565b9091555050505050565b60025460009083111561025957604051637db3aba760e01b815260040160405180910390fd5b8260000361026f5761026a82610313565b6102aa565b600061027f6101e26001866106af565b905061028b818461057c565b91506001600060020160008282546102a391906106c2565b9091555050505b92915050565b6002546000036102d3576040516301857f4f60e61b815260040160405180910390fd5b60008054805460ff1916815560028082015480845581549293909260019291906102fe9084906106af565b9091555081905061030f5760006001555b5050565b6002546000901561032357506000545b60408051600054602082015260015491810191909152600254606082015260800160408051601f19818403018152919052805160209091012060009081556002549003610371576000546001555b60005461037f9083836105e9565b5060016000600201600082825461039691906106c2565b90915550505050565b6002546000036103c2576040516301857f4f60e61b815260040160405180910390fd5b60006103d960026000600201546101e291906106af565b90506103f86103e9826002015490565b805460ff191681556002015490565b50600060028083018290558054600192906104149084906106af565b9091555050600155565b6002546000908103610443576040516301857f4f60e61b815260040160405180910390fd5b6001546000905b6001015491505090565b600254600090821061047957604051637db3aba760e01b815260040160405180910390fd5b6104828261052c565b6001015492915050565b60025460009081036104b1576040516301857f4f60e61b815260040160405180910390fd5b6000805461044a565b60006104cb60006002015483610233565b600181905592915050565b60025460009082106104fb57604051637db3aba760e01b815260040160405180910390fd5b6102aa82600160006002015461051191906106af565b61013591906106af565b600061052660025490565b15919050565b600254600090821061055157604051637db3aba760e01b815260040160405180910390fd5b60008054905b838114610575578160020154915061056e816106d5565b9050610557565b5092915050565b600080836040516020016105af9190815460ff161515815260018201546020820152600290910154604082015260600190565b60405160208183030381529060405280519060200120905060006105d8828587600201546105e9565b600290950191909155509192915050565b8254839060ff16156106415760405162461bcd60e51b815260206004820152601f60248201527f6572726f723a206e6f646520616c726561647920696e697469616c697a656400604482015260640160405180910390fd5b805460ff1916600190811782558101929092556002820155919050565b60006020828403121561067057600080fd5b5035919050565b6000806040838503121561068a57600080fd5b50508035926020909101359150565b634e487b7160e01b600052601160045260246000fd5b818103818111156102aa576102aa610699565b808201808211156102aa576102aa610699565b6000600182016106e7576106e7610699565b506001019056fea26469706673582212202daaf216f63099bd76db20b1eceb19f39691416d216747156d8f97c8ad2451fd64736f6c63430008110033",
    "linkReferences": {}
  },
  "methodIdentifiers": {
    "back()": "8dde0840",
    "empty()": "f2a75fe4",
    "erase(uint256)": "1007f753",
    "front()": "ba75bbd8",
    "insert(uint256,uint256)": "1d834a1b",
    "pop_back()": "7abbc49a",
    "pop_front()": "23b3331e",
    "push_back(uint256)": "cf120ec0",
    "push_front(uint256)": "3100c3d6",
    "size()": "949d225d",
    "value_at(uint256)": "a0238388",
    "value_n_from_end(uint256)": "edfc61fb"
  },
  "id": 8
}